{
    "contractName": "Inbox",
    "abi": [
        {
            "inputs": [],
            "stateMutability": "nonpayable",
            "type": "constructor"
        },
        {
            "inputs": [],
            "name": "getMessage",
            "outputs": [
                {
                    "internalType": "string",
                    "name": "",
                    "type": "string"
                }
            ],
            "stateMutability": "view",
            "type": "function"
        },
        {
            "inputs": [],
            "name": "message",
            "outputs": [
                {
                    "internalType": "string",
                    "name": "",
                    "type": "string"
                }
            ],
            "stateMutability": "view",
            "type": "function"
        },
        {
            "inputs": [
                {
                    "internalType": "string",
                    "name": "newMessage",
                    "type": "string"
                }
            ],
            "name": "setMessage",
            "outputs": [],
            "stateMutability": "nonpayable",
            "type": "function"
        }
    ],
    "bytecode": "608060405234801561001057600080fd5b506103dd806100206000396000f3fe608060405234801561001057600080fd5b50600436106100415760003560e01c8063368b877214610046578063ce6d41de1461005b578063e21f37ce14610079575b600080fd5b610059610054366004610267565b610081565b005b610063610098565b6040516100709190610318565b60405180910390f35b61006361012a565b80516100949060009060208401906101b8565b5050565b6060600080546100a79061036d565b80601f01602080910402602001604051908101604052809291908181526020018280546100d39061036d565b80156101205780601f106100f557610100808354040283529160200191610120565b820191906000526020600020905b81548152906001019060200180831161010357829003601f168201915b5050505050905090565b600080546101379061036d565b80601f01602080910402602001604051908101604052809291908181526020018280546101639061036d565b80156101b05780601f10610185576101008083540402835291602001916101b0565b820191906000526020600020905b81548152906001019060200180831161019357829003601f168201915b505050505081565b8280546101c49061036d565b90600052602060002090601f0160209004810192826101e6576000855561022c565b82601f106101ff57805160ff191683800117855561022c565b8280016001018555821561022c579182015b8281111561022c578251825591602001919060010190610211565b5061023892915061023c565b5090565b5b80821115610238576000815560010161023d565b634e487b7160e01b600052604160045260246000fd5b60006020828403121561027957600080fd5b813567ffffffffffffffff8082111561029157600080fd5b818401915084601f8301126102a557600080fd5b8135818111156102b7576102b7610251565b604051601f8201601f19908116603f011681019083821181831017156102df576102df610251565b816040528281528760208487010111156102f857600080fd5b826020860160208301376000928101602001929092525095945050505050565b600060208083528351808285015260005b8181101561034557858101830151858201604001528201610329565b81811115610357576000604083870101525b50601f01601f1916929092016040019392505050565b600181811c9082168061038157607f821691505b6020821081036103a157634e487b7160e01b600052602260045260246000fd5b5091905056fea264697066735822122001902a2e94715c3dc7c032d3c050ac7dcb1de78a08324bbabca579f8f9774af564736f6c634300080e0033",
    "sourcePath": "/Users/jordiugarte/MEGA/Ing. Sistemas/Blockchain/jordiugarte-blockchain-2022/Inbox.sol",
    "compiler": {
        "name": "solc",
        "version": "0.8.14+commit.80d49f37"
    },
    "functionHashes": {
        "getMessage()": "ce6d41de",
        "message()": "e21f37ce",
        "setMessage(string)": "368b8772"
    },
    "gasEstimates": {
        "creation": {
            "codeDepositCost": "197800",
            "executionCost": "238",
            "totalCost": "198038"
        },
        "external": {
            "getMessage()": "infinite",
            "message()": "infinite",
            "setMessage(string)": "infinite"
        }
    }
}