{
  "contractName": "TestBank",
  "abi": [
    {
      "inputs": [],
      "stateMutability": "nonpayable",
      "type": "constructor"
    },
    {
      "anonymous": false,
      "inputs": [
        {
          "indexed": false,
          "internalType": "uint256",
          "name": "id",
          "type": "uint256"
        },
        {
          "indexed": false,
          "internalType": "string",
          "name": "name",
          "type": "string"
        },
        {
          "indexed": false,
          "internalType": "uint256",
          "name": "amount",
          "type": "uint256"
        }
      ],
      "name": "clientDeposit",
      "type": "event"
    },
    {
      "inputs": [
        {
          "internalType": "uint256",
          "name": "",
          "type": "uint256"
        }
      ],
      "name": "listAccounts",
      "outputs": [
        {
          "internalType": "uint256",
          "name": "id",
          "type": "uint256"
        },
        {
          "internalType": "string",
          "name": "name",
          "type": "string"
        },
        {
          "internalType": "uint256",
          "name": "balance",
          "type": "uint256"
        },
        {
          "internalType": "bool",
          "name": "enable",
          "type": "bool"
        }
      ],
      "stateMutability": "view",
      "type": "function"
    },
    {
      "inputs": [
        {
          "components": [
            {
              "internalType": "uint256",
              "name": "id",
              "type": "uint256"
            },
            {
              "internalType": "string",
              "name": "name",
              "type": "string"
            },
            {
              "internalType": "uint256",
              "name": "balance",
              "type": "uint256"
            },
            {
              "internalType": "bool",
              "name": "enable",
              "type": "bool"
            }
          ],
          "internalType": "struct TestBank.Account",
          "name": "accountData",
          "type": "tuple"
        }
      ],
      "name": "createAccount",
      "outputs": [],
      "stateMutability": "nonpayable",
      "type": "function"
    },
    {
      "inputs": [
        {
          "internalType": "uint256",
          "name": "id",
          "type": "uint256"
        }
      ],
      "name": "depositMoney",
      "outputs": [],
      "stateMutability": "payable",
      "type": "function"
    },
    {
      "inputs": [
        {
          "internalType": "uint256",
          "name": "id",
          "type": "uint256"
        },
        {
          "internalType": "uint256",
          "name": "amount",
          "type": "uint256"
        }
      ],
      "name": "redrawMoney",
      "outputs": [],
      "stateMutability": "payable",
      "type": "function"
    },
    {
      "inputs": [
        {
          "internalType": "uint256",
          "name": "id",
          "type": "uint256"
        }
      ],
      "name": "blockAccount",
      "outputs": [],
      "stateMutability": "nonpayable",
      "type": "function"
    },
    {
      "inputs": [
        {
          "internalType": "bool",
          "name": "state",
          "type": "bool"
        }
      ],
      "name": "closeOrOpenBank",
      "outputs": [],
      "stateMutability": "nonpayable",
      "type": "function"
    },
    {
      "inputs": [],
      "name": "withdrawAllMoney",
      "outputs": [],
      "stateMutability": "nonpayable",
      "type": "function"
    }
  ],
  "bytecode": "0x608060405260008060146101000a81548160ff02191690831515021790555034801561002a57600080fd5b50336000806101000a81548173ffffffffffffffffffffffffffffffffffffffff021916908373ffffffffffffffffffffffffffffffffffffffff16021790555061153e8061007a6000396000f3fe6080604052600436106100705760003560e01c80635f3501eb1161004e5780635f3501eb146100f5578063913a9bfc1461011e578063ae18c52b1461013a578063e8dc04fa1461015657610070565b80631b52b9de14610075578063429f3b481461008c57806347f5b93d146100b5575b600080fd5b34801561008157600080fd5b5061008a61017f565b005b34801561009857600080fd5b506100b360048036038101906100ae9190610c66565b610256565b005b3480156100c157600080fd5b506100dc60048036038101906100d79190610c66565b610366565b6040516100ec9493929190610d56565b60405180910390f35b34801561010157600080fd5b5061011c60048036038101906101179190610fa1565b61042b565b005b61013860048036038101906101339190610fea565b6105ec565b005b610154600480360381019061014f9190610c66565b610823565b005b34801561016257600080fd5b5061017d6004803603810190610178919061102a565b610ab1565b005b3373ffffffffffffffffffffffffffffffffffffffff1660008054906101000a900473ffffffffffffffffffffffffffffffffffffffff1673ffffffffffffffffffffffffffffffffffffffff161461020d576040517f08c379a0000000000000000000000000000000000000000000000000000000008152600401610204906110a3565b60405180910390fd5b3373ffffffffffffffffffffffffffffffffffffffff166108fc479081150290604051600060405180830381858888f19350505050158015610253573d6000803e3d6000fd5b50565b3373ffffffffffffffffffffffffffffffffffffffff1660008054906101000a900473ffffffffffffffffffffffffffffffffffffffff1673ffffffffffffffffffffffffffffffffffffffff16146102e4576040517f08c379a00000000000000000000000000000000000000000000000000000000081526004016102db906110a3565b60405180910390fd5b600060149054906101000a900460ff1615610334576040517f08c379a000000000000000000000000000000000000000000000000000000000815260040161032b9061110f565b60405180910390fd5b60006001600083815260200190815260200160002060030160006101000a81548160ff02191690831515021790555050565b600160205280600052604060002060009150905080600001549080600101805461038f9061115e565b80601f01602080910402602001604051908101604052809291908181526020018280546103bb9061115e565b80156104085780601f106103dd57610100808354040283529160200191610408565b820191906000526020600020905b8154815290600101906020018083116103eb57829003601f168201915b5050505050908060020154908060030160009054906101000a900460ff16905084565b3373ffffffffffffffffffffffffffffffffffffffff1660008054906101000a900473ffffffffffffffffffffffffffffffffffffffff1673ffffffffffffffffffffffffffffffffffffffff16146104b9576040517f08c379a00000000000000000000000000000000000000000000000000000000081526004016104b0906110a3565b60405180910390fd5b600060149054906101000a900460ff1615610509576040517f08c379a00000000000000000000000000000000000000000000000000000000081526004016105009061110f565b60405180910390fd5b600581602001515111610551576040517f08c379a000000000000000000000000000000000000000000000000000000000815260040161054890611201565b60405180910390fd5b60405180608001604052808260000151815260200182602001518152602001600081526020016001151581525060016000836000015181526020019081526020016000206000820151816000015560208201518160010190805190602001906105bb929190610b79565b506040820151816002015560608201518160030160006101000a81548160ff02191690831515021790555090505050565b600060149054906101000a900460ff161561063c576040517f08c379a00000000000000000000000000000000000000000000000000000000081526004016106339061110f565b60405180910390fd5b600060016000848152602001908152602001600020604051806080016040529081600082015481526020016001820180546106769061115e565b80601f01602080910402602001604051908101604052809291908181526020018280546106a29061115e565b80156106ef5780601f106106c4576101008083540402835291602001916106ef565b820191906000526020600020905b8154815290600101906020018083116106d257829003601f168201915b50505050508152602001600282015481526020016003820160009054906101000a900460ff16151515158152505090508060600151610763576040517f08c379a000000000000000000000000000000000000000000000000000000000815260040161075a9061126d565b60405180910390fd5b80604001518211156107aa576040517f08c379a00000000000000000000000000000000000000000000000000000000081526004016107a1906112ff565b60405180910390fd5b816001600085815260200190815260200160002060020160008282546107d0919061134e565b925050819055503373ffffffffffffffffffffffffffffffffffffffff166108fc839081150290604051600060405180830381858888f1935050505015801561081d573d6000803e3d6000fd5b50505050565b600060149054906101000a900460ff1615610873576040517f08c379a000000000000000000000000000000000000000000000000000000000815260040161086a9061110f565b60405180910390fd5b600060016000838152602001908152602001600020604051806080016040529081600082015481526020016001820180546108ad9061115e565b80601f01602080910402602001604051908101604052809291908181526020018280546108d99061115e565b80156109265780601f106108fb57610100808354040283529160200191610926565b820191906000526020600020905b81548152906001019060200180831161090957829003601f168201915b50505050508152602001600282015481526020016003820160009054906101000a900460ff1615151515815250509050806060015161099a576040517f08c379a00000000000000000000000000000000000000000000000000000000081526004016109919061126d565b60405180910390fd5b60006109a534610b5c565b9050600281116109ea576040517f08c379a00000000000000000000000000000000000000000000000000000000081526004016109e1906113f4565b60405180910390fd5b80600160008581526020019081526020016000206002016000828254610a109190611414565b925050819055507f0b0e6eb2d8b92c18ec783003047b570bd400b8a471483d527026ac6c813269558260000151836020015183604051610a529392919061146a565b60405180910390a1600a811115610aac573373ffffffffffffffffffffffffffffffffffffffff166108fc60029081150290604051600060405180830381858888f19350505050158015610aaa573d6000803e3d6000fd5b505b505050565b3373ffffffffffffffffffffffffffffffffffffffff1660008054906101000a900473ffffffffffffffffffffffffffffffffffffffff1673ffffffffffffffffffffffffffffffffffffffff1614610b3f576040517f08c379a0000000000000000000000000000000000000000000000000000000008152600401610b36906110a3565b60405180910390fd5b80600060146101000a81548160ff02191690831515021790555050565b6000670de0b6b3a764000082610b7291906114d7565b9050919050565b828054610b859061115e565b90600052602060002090601f016020900481019282610ba75760008555610bee565b82601f10610bc057805160ff1916838001178555610bee565b82800160010185558215610bee579182015b82811115610bed578251825591602001919060010190610bd2565b5b509050610bfb9190610bff565b5090565b5b80821115610c18576000816000905550600101610c00565b5090565b6000604051905090565b600080fd5b600080fd5b6000819050919050565b610c4381610c30565b8114610c4e57600080fd5b50565b600081359050610c6081610c3a565b92915050565b600060208284031215610c7c57610c7b610c26565b5b6000610c8a84828501610c51565b91505092915050565b610c9c81610c30565b82525050565b600081519050919050565b600082825260208201905092915050565b60005b83811015610cdc578082015181840152602081019050610cc1565b83811115610ceb576000848401525b50505050565b6000601f19601f8301169050919050565b6000610d0d82610ca2565b610d178185610cad565b9350610d27818560208601610cbe565b610d3081610cf1565b840191505092915050565b60008115159050919050565b610d5081610d3b565b82525050565b6000608082019050610d6b6000830187610c93565b8181036020830152610d7d8186610d02565b9050610d8c6040830185610c93565b610d996060830184610d47565b95945050505050565b600080fd5b7f4e487b7100000000000000000000000000000000000000000000000000000000600052604160045260246000fd5b610ddf82610cf1565b810181811067ffffffffffffffff82111715610dfe57610dfd610da7565b5b80604052505050565b6000610e11610c1c565b9050610e1d8282610dd6565b919050565b600080fd5b600080fd5b600080fd5b600067ffffffffffffffff821115610e4c57610e4b610da7565b5b610e5582610cf1565b9050602081019050919050565b82818337600083830152505050565b6000610e84610e7f84610e31565b610e07565b905082815260208101848484011115610ea057610e9f610e2c565b5b610eab848285610e62565b509392505050565b600082601f830112610ec857610ec7610e27565b5b8135610ed8848260208601610e71565b91505092915050565b610eea81610d3b565b8114610ef557600080fd5b50565b600081359050610f0781610ee1565b92915050565b600060808284031215610f2357610f22610da2565b5b610f2d6080610e07565b90506000610f3d84828501610c51565b600083015250602082013567ffffffffffffffff811115610f6157610f60610e22565b5b610f6d84828501610eb3565b6020830152506040610f8184828501610c51565b6040830152506060610f9584828501610ef8565b60608301525092915050565b600060208284031215610fb757610fb6610c26565b5b600082013567ffffffffffffffff811115610fd557610fd4610c2b565b5b610fe184828501610f0d565b91505092915050565b6000806040838503121561100157611000610c26565b5b600061100f85828601610c51565b925050602061102085828601610c51565b9150509250929050565b6000602082840312156110405761103f610c26565b5b600061104e84828501610ef8565b91505092915050565b7f596f7520617265206e6f7420746865206f776e65722e00000000000000000000600082015250565b600061108d601683610cad565b915061109882611057565b602082019050919050565b600060208201905081810360008301526110bc81611080565b9050919050565b7f5468652062616e6b20697320636c6f7365642e00000000000000000000000000600082015250565b60006110f9601383610cad565b9150611104826110c3565b602082019050919050565b60006020820190508181036000830152611128816110ec565b9050919050565b7f4e487b7100000000000000000000000000000000000000000000000000000000600052602260045260246000fd5b6000600282049050600182168061117657607f821691505b6020821081036111895761118861112f565b5b50919050565b7f546865206e616d65206f662070726f647563742073686f756c64206265206d6f60008201527f7265207468616e20352e00000000000000000000000000000000000000000000602082015250565b60006111eb602a83610cad565b91506111f68261118f565b604082019050919050565b6000602082019050818103600083015261121a816111de565b9050919050565b7f596f7572206163636f756e7420697320626c6f636b65642e0000000000000000600082015250565b6000611257601883610cad565b915061126282611221565b602082019050919050565b600060208201905081810360008301526112868161124a565b9050919050565b7f596f7520646f6e2774206861766520656e6f756768206d6f6e657920696e207960008201527f6f7572206163636f756e7420746f207265647261772e00000000000000000000602082015250565b60006112e9603683610cad565b91506112f48261128d565b604082019050919050565b60006020820190508181036000830152611318816112dc565b9050919050565b7f4e487b7100000000000000000000000000000000000000000000000000000000600052601160045260246000fd5b600061135982610c30565b915061136483610c30565b9250828210156113775761137661131f565b5b828203905092915050565b7f546865206d696e696d756e206465706f7369742073686f756c64206265206d6f60008201527f7265207468616e2032204554482e000000000000000000000000000000000000602082015250565b60006113de602e83610cad565b91506113e982611382565b604082019050919050565b6000602082019050818103600083015261140d816113d1565b9050919050565b600061141f82610c30565b915061142a83610c30565b9250827fffffffffffffffffffffffffffffffffffffffffffffffffffffffffffffffff0382111561145f5761145e61131f565b5b828201905092915050565b600060608201905061147f6000830186610c93565b81810360208301526114918185610d02565b90506114a06040830184610c93565b949350505050565b7f4e487b7100000000000000000000000000000000000000000000000000000000600052601260045260246000fd5b60006114e282610c30565b91506114ed83610c30565b9250826114fd576114fc6114a8565b5b82820490509291505056fea2646970667358221220349295a8a191620173b900434008363384b42004394077d4e08c708f2b58d73964736f6c634300080e0033",
  "immutableReferences": {},
  "source": "// SPDX-License-Identifier: GPL-3.0\npragma solidity ^0.8.0;\n\ncontract TestBank {\n    struct Account {\n        uint id;\n        string name;\n        uint balance;\n        bool enable;\n    }\n\n    address private ownerAddress;\n    bool private bankClosed = false;\n    event clientDeposit(uint id, string name, uint amount);\n    mapping(uint => Account) public listAccounts;\n\n    constructor() {\n        ownerAddress = msg.sender;\n    }\n    /**\n    * @dev create account of client for bank\n    * @param accountData data of new account\n    */\n    function createAccount(Account memory accountData) public onlyOwner closedBank {\n        require(bytes(accountData.name).length > 5, \"The name of product should be more than 5.\");\n        listAccounts[accountData.id] = Account(accountData.id, accountData.name, 0, true);\n    }\n    /**\n    * @dev allow to user deposit money to his account\n    * @param id of account\n    */\n    function depositMoney(uint id) public payable closedBank {\n        Account memory accountData = listAccounts[id];\n        require(accountData.enable, \"Your account is blocked.\");\n    uint amount = convertWeiToEther(msg.value);\n        require(amount > 2, \"The minimun deposit should be more than 2 ETH.\");\n        listAccounts[id].balance += amount;\n        emit clientDeposit(accountData.id, accountData.name, amount);\n        if (amount > 10) {\n            payable(msg.sender).transfer(2);\n        }\n    }\n    /**\n    * @dev allow to user withdraw his money of his account\n    * @param id of account, amount to withdraw\n    */\n    function redrawMoney(uint id, uint amount) public payable closedBank {\n    Account memory accountData = listAccounts[id];\n    require(accountData.enable, \"Your account is blocked.\");\n    require(amount <= accountData.balance, \"You don't have enough money in your account to redraw.\");\n    listAccounts[id].balance -= amount;\n    payable(msg.sender).transfer(amount);\n    }\n    /**\n    * @dev Manager of bank can lock one specific account\n    * @param id of account to lock\n    */\n    function blockAccount(uint id) public onlyOwner closedBank {\n        listAccounts[id].enable = false;\n    }\n    /**\n    * @dev Manager can open or close bank\n    * @param state true or false\n    */\n    function closeOrOpenBank(bool state) public onlyOwner {\n        bankClosed = state;\n    }\n    /**\n    * @dev Manager can withdraw all money of the bank\n    */\n    function withdrawAllMoney() public onlyOwner {\n        payable(msg.sender).transfer(address(this).balance);\n    }\n    /**\n    * @dev convert wei to ether\n    * @param amountInWei value in wei to convert\n    * @return param value in wei format\n    */\n    function convertWeiToEther(uint amountInWei) private pure returns (uint) {\n        return amountInWei / 1 ether;\n    }\n    // Modifier to allow just manager to do something\n    modifier onlyOwner() {\n        require(ownerAddress == msg.sender, \"You are not the owner.\");\n        _;\n    }\n        // Modifier to verify if bank is close or open\n        modifier closedBank() {\n            require(!bankClosed, \"The bank is closed.\");\n            _;\n    }\n}",
  "sourcePath": "/Users/jordiugarte/Desktop/jordiugarte-blockchain-2022/contracts/TestBank.sol",
  "compiler": {
    "name": "solc",
    "version": "0.8.14+commit.80d49f37.Emscripten.clang"
  },
  "schemaVersion": "3.4.7",
  "updatedAt": "2022-06-17T18:06:25.709Z",
  "devdoc": {
    "kind": "dev",
    "methods": {
      "blockAccount(uint256)": {
        "details": "Manager of bank can lock one specific account",
        "params": {
          "id": "of account to lock"
        }
      },
      "closeOrOpenBank(bool)": {
        "details": "Manager can open or close bank",
        "params": {
          "state": "true or false"
        }
      },
      "createAccount((uint256,string,uint256,bool))": {
        "details": "create account of client for bank",
        "params": {
          "accountData": "data of new account"
        }
      },
      "depositMoney(uint256)": {
        "details": "allow to user deposit money to his account",
        "params": {
          "id": "of account"
        }
      },
      "redrawMoney(uint256,uint256)": {
        "details": "allow to user withdraw his money of his account",
        "params": {
          "id": "of account, amount to withdraw"
        }
      },
      "withdrawAllMoney()": {
        "details": "Manager can withdraw all money of the bank"
      }
    },
    "version": 1
  },
  "userdoc": {
    "kind": "user",
    "methods": {},
    "version": 1
  }
}